{
  "contractName": "QuickBLS",
  "abi": [
    {
      "inputs": [],
      "name": "G2_NEG_X_IM",
      "outputs": [
        {
          "internalType": "uint256",
          "name": "",
          "type": "uint256"
        }
      ],
      "stateMutability": "view",
      "type": "function"
    },
    {
      "inputs": [],
      "name": "G2_NEG_X_RE",
      "outputs": [
        {
          "internalType": "uint256",
          "name": "",
          "type": "uint256"
        }
      ],
      "stateMutability": "view",
      "type": "function"
    },
    {
      "inputs": [],
      "name": "G2_NEG_Y_IM",
      "outputs": [
        {
          "internalType": "uint256",
          "name": "",
          "type": "uint256"
        }
      ],
      "stateMutability": "view",
      "type": "function"
    },
    {
      "inputs": [],
      "name": "G2_NEG_Y_RE",
      "outputs": [
        {
          "internalType": "uint256",
          "name": "",
          "type": "uint256"
        }
      ],
      "stateMutability": "view",
      "type": "function"
    }
  ],
  "bytecode": "0x6101c861004e600b8282823980515f1a607314610042577f4e487b71000000000000000000000000000000000000000000000000000000005f525f60045260245ffd5b305f52607381538281f3fe7300000000000000000000000000000000000000003014608060405260043610610055575f3560e01c80635120675214610059578063783bde80146100775780639b0c399a14610095578063ad50f9c1146100b3575b5f80fd5b6100616100d1565b60405161006e9190610179565b60405180910390f35b61007f6100f5565b60405161008c9190610179565b60405180910390f35b61009d610119565b6040516100aa9190610179565b60405180910390f35b6100bb61013d565b6040516100c89190610179565b60405180910390f35b7f1d9befcd05a5323e6da4d435f3b617cdb3af83285c2df711ef39c01571827f9d81565b7f198e9393920d483a7260bfb731fb5d25f1aa493335a9e71297e485b7aef312c281565b7f1800deef121f1e76426a00665e5c4479674322d4f75edadd46debd5cd992f6ed81565b7f275dc4a288d1afb3cbb1ac09187524c7db36395df7be3b99e673b13a075a65ec81565b5f819050919050565b61017381610161565b82525050565b5f60208201905061018c5f83018461016a565b9291505056fea264697066735822122015d4b7e2fc96a40495fec1e7a4d98a7ff080a5c775b06235516cff9b92fdbd8964736f6c63430008150033",
  "immutableReferences": {},
  "source": "// SPDX-License-Identifier: MIT \npragma solidity ^0.8.19;\n\nlibrary QuickBLS{\n\n    uint256 constant N = 21888242871839275222246405745257275088696311157297823662689037894645226208583;\n\n     // This is the generator negated, to use for pairing\n    uint256 public constant G2_NEG_X_RE  = 0x198E9393920D483A7260BFB731FB5D25F1AA493335A9E71297E485B7AEF312C2;\n    uint256 public constant G2_NEG_X_IM  = 0x1800DEEF121F1E76426A00665E5C4479674322D4F75EDADD46DEBD5CD992F6ED;\n    uint256 public constant G2_NEG_Y_RE  = 0x275dc4a288d1afb3cbb1ac09187524c7db36395df7be3b99e673b13a075a65ec;\n    uint256 public constant G2_NEG_Y_IM  = 0x1d9befcd05a5323e6da4d435f3b617cdb3af83285c2df711ef39c01571827f9d;\n\n\n    function htp(bytes memory message) internal view returns (uint256[2] memory r) {\n        uint[3] memory input;\n        bytes32  s = keccak256(message);\n        input[0] = 0x1;\n        input[1] = 0x2;\n        input[2] = uint256(s);\n        bool success;\n        assembly {\n            success := staticcall(sub(gas(), 2000), 7, input, 0x80, r, 0x60)\n        // Use \"invalid\" to make gas estimation work\n            switch success case 0 {invalid()}\n        }\n        require(success);\n    }\n\n\n\n\n    function verifySignature (uint256[2] memory signature,uint256[4] memory pubkey, bytes memory message) internal  returns (bool) {\n       uint256[2] memory hm = htp(message);\n       return verify(signature, pubkey, hm);\n    }\n\n    function verify(\n    uint256[2] memory signature,\n    uint256[4] memory pubkey,\n    uint256[2] memory message\n    ) internal  returns (bool) {\n\n        uint256[12] memory input = [signature[0], signature[1] ,G2_NEG_X_RE , G2_NEG_X_IM, G2_NEG_Y_RE, G2_NEG_Y_IM, message[0], message[1], pubkey[0], pubkey[1], pubkey[2], pubkey[3]];\n        uint256[1] memory out;\n        bool success;\n        return ecCheckPairing(input);\n    }\n\n   function ecCheckPairing(uint256[12] memory input) private returns (bool) {\n    uint256[1] memory result;\n    bool success;\n    assembly {\n      // 0x08     id of the bn256CheckPairing precompile    (checking the elliptic curve pairings)\n      // 0        number of ether to transfer\n      // 0        since we have an array of fixed length, our input starts in 0\n      // 384      size of call parameters, i.e. 12*256 bits == 384 bytes\n      // 32       size of result (one 32 byte boolean!)\n      success := call(sub(gas(), 2000), 0x08, 0, input, 384, result, 32)\n    }\n    require(success, \"elliptic curve pairing failed\");\n    return result[0] == 1;\n  }\n\n      function VerifyMsgHash(uint256[2] memory hash, bytes memory message)internal view returns (bool) {\n        uint256[2] memory hm = htp(message);\n        return hm[0] == hash[0] && hm[1] == hash[1];\n    }\n}\n\n\n",
  "sourcePath": "/Users/menajd/work/chainBoostAMM/abstract_amm/TokenBank/tbsc/contracts/quickbls.sol",
  "compiler": {
    "name": "solc",
    "version": "0.8.21+commit.d9974bed.Emscripten.clang"
  },
  "schemaVersion": "3.4.16",
  "updatedAt": "2024-05-08T15:29:13.818Z",
  "devdoc": {
    "kind": "dev",
    "methods": {},
    "version": 1
  },
  "userdoc": {
    "kind": "user",
    "methods": {},
    "version": 1
  }
}