{
  "contractName": "TokenBank",
  "abi": [
    {
      "inputs": [
        {
          "internalType": "address",
          "name": "_tokenA",
          "type": "address"
        },
        {
          "internalType": "address",
          "name": "_tokenB",
          "type": "address"
        }
      ],
      "stateMutability": "nonpayable",
      "type": "constructor"
    },
    {
      "inputs": [
        {
          "internalType": "uint256",
          "name": "",
          "type": "uint256"
        }
      ],
      "name": "deposit_map",
      "outputs": [
        {
          "internalType": "address",
          "name": "sepoliaAddr",
          "type": "address"
        },
        {
          "internalType": "int256",
          "name": "amount_tokenA",
          "type": "int256"
        },
        {
          "internalType": "int256",
          "name": "amount_tokenB",
          "type": "int256"
        },
        {
          "internalType": "bool",
          "name": "initialized",
          "type": "bool"
        }
      ],
      "stateMutability": "view",
      "type": "function"
    },
    {
      "inputs": [
        {
          "internalType": "address",
          "name": "",
          "type": "address"
        },
        {
          "internalType": "string",
          "name": "",
          "type": "string"
        }
      ],
      "name": "position_map",
      "outputs": [
        {
          "internalType": "int256",
          "name": "amount_tokenA",
          "type": "int256"
        },
        {
          "internalType": "int256",
          "name": "amount_tokenB",
          "type": "int256"
        },
        {
          "internalType": "int32",
          "name": "lower_bound",
          "type": "int32"
        },
        {
          "internalType": "int32",
          "name": "upper_bound",
          "type": "int32"
        },
        {
          "internalType": "int256",
          "name": "fees_earned_A",
          "type": "int256"
        },
        {
          "internalType": "int256",
          "name": "fees_earned_B",
          "type": "int256"
        }
      ],
      "stateMutability": "view",
      "type": "function"
    },
    {
      "inputs": [],
      "name": "tokenA",
      "outputs": [
        {
          "internalType": "contract IERC20",
          "name": "",
          "type": "address"
        }
      ],
      "stateMutability": "view",
      "type": "function"
    },
    {
      "inputs": [],
      "name": "tokenB",
      "outputs": [
        {
          "internalType": "contract IERC20",
          "name": "",
          "type": "address"
        }
      ],
      "stateMutability": "view",
      "type": "function"
    },
    {
      "inputs": [
        {
          "internalType": "int256",
          "name": "_amount",
          "type": "int256"
        },
        {
          "internalType": "bool",
          "name": "_type",
          "type": "bool"
        },
        {
          "internalType": "uint256",
          "name": "sidechainAddr",
          "type": "uint256"
        }
      ],
      "name": "deposit",
      "outputs": [],
      "stateMutability": "payable",
      "type": "function"
    },
    {
      "inputs": [
        {
          "components": [
            {
              "internalType": "bool",
              "name": "tx_type_id",
              "type": "bool"
            },
            {
              "internalType": "uint256",
              "name": "sidechainAddr",
              "type": "uint256"
            },
            {
              "internalType": "string",
              "name": "position_id",
              "type": "string"
            },
            {
              "internalType": "int256",
              "name": "amount_tokenA",
              "type": "int256"
            },
            {
              "internalType": "int256",
              "name": "amount_tokenB",
              "type": "int256"
            },
            {
              "internalType": "int32",
              "name": "lower_bound",
              "type": "int32"
            },
            {
              "internalType": "int32",
              "name": "upper_bound",
              "type": "int32"
            },
            {
              "internalType": "int256",
              "name": "fees_earned_A",
              "type": "int256"
            },
            {
              "internalType": "int256",
              "name": "fees_earned_B",
              "type": "int256"
            }
          ],
          "internalType": "struct TokenBank.sync_struct[]",
          "name": "syncTx",
          "type": "tuple[]"
        },
        {
          "internalType": "uint256[4]",
          "name": "nextPubkey",
          "type": "uint256[4]"
        },
        {
          "internalType": "uint256[2]",
          "name": "signature",
          "type": "uint256[2]"
        }
      ],
      "name": "handle_sync",
      "outputs": [],
      "stateMutability": "nonpayable",
      "type": "function"
    },
    {
      "inputs": [],
      "name": "getContractBalance",
      "outputs": [
        {
          "internalType": "uint256",
          "name": "tokenAval",
          "type": "uint256"
        },
        {
          "internalType": "uint256",
          "name": "tokenBval",
          "type": "uint256"
        }
      ],
      "stateMutability": "view",
      "type": "function"
    },
    {
      "inputs": [
        {
          "internalType": "uint256",
          "name": "_addr",
          "type": "uint256"
        }
      ],
      "name": "getDepositBalance",
      "outputs": [
        {
          "internalType": "int256",
          "name": "tokenAval",
          "type": "int256"
        },
        {
          "internalType": "int256",
          "name": "tokenBval",
          "type": "int256"
        }
      ],
      "stateMutability": "view",
      "type": "function"
    },
    {
      "inputs": [
        {
          "internalType": "address",
          "name": "_addr",
          "type": "address"
        },
        {
          "internalType": "string",
          "name": "_uid",
          "type": "string"
        }
      ],
      "name": "getPosition",
      "outputs": [
        {
          "components": [
            {
              "internalType": "int256",
              "name": "amount_tokenA",
              "type": "int256"
            },
            {
              "internalType": "int256",
              "name": "amount_tokenB",
              "type": "int256"
            },
            {
              "internalType": "int32",
              "name": "lower_bound",
              "type": "int32"
            },
            {
              "internalType": "int32",
              "name": "upper_bound",
              "type": "int32"
            },
            {
              "internalType": "int256",
              "name": "fees_earned_A",
              "type": "int256"
            },
            {
              "internalType": "int256",
              "name": "fees_earned_B",
              "type": "int256"
            }
          ],
          "internalType": "struct TokenBank.position_stuct",
          "name": "",
          "type": "tuple"
        }
      ],
      "stateMutability": "view",
      "type": "function"
    },
    {
      "inputs": [],
      "name": "withdrawAll",
      "outputs": [],
      "stateMutability": "nonpayable",
      "type": "function"
    }
  ],
  "bytecode": "0x6080604052600160075f6101000a81548160ff0219169083151502179055503480156200002a575f80fd5b50604051620029fe380380620029fe83398181016040528101906200005091906200017c565b815f806101000a81548173ffffffffffffffffffffffffffffffffffffffff021916908373ffffffffffffffffffffffffffffffffffffffff1602179055508060015f6101000a81548173ffffffffffffffffffffffffffffffffffffffff021916908373ffffffffffffffffffffffffffffffffffffffff1602179055503360025f6101000a81548173ffffffffffffffffffffffffffffffffffffffff021916908373ffffffffffffffffffffffffffffffffffffffff1602179055505050620001c1565b5f80fd5b5f73ffffffffffffffffffffffffffffffffffffffff82169050919050565b5f62000146826200011b565b9050919050565b62000158816200013a565b811462000163575f80fd5b50565b5f8151905062000176816200014d565b92915050565b5f806040838503121562000195576200019462000117565b5b5f620001a48582860162000166565b9250506020620001b78582860162000166565b9150509250929050565b61282f80620001cf5f395ff3fe608060405260043610610090575f3560e01c80636f9fb98a116100585780636f9fb98a146101905780637cc30339146101bb578063853828b6146101d75780638e68d925146101ed578063b1ad0fa01461022a57610090565b80630fc63d10146100945780632055c42b146100be5780633cde2e53146100ff5780635f64b55b1461012757806363edec2514610151575b5f80fd5b34801561009f575f80fd5b506100a8610266565b6040516100b59190611931565b60405180910390f35b3480156100c9575f80fd5b506100e460048036038101906100df9190611ad2565b610289565b6040516100f696959493929190611b5f565b60405180910390f35b34801561010a575f80fd5b5061012560048036038101906101209190611d1d565b6102fd565b005b348015610132575f80fd5b5061013b610ca5565b6040516101489190611931565b60405180910390f35b34801561015c575f80fd5b5061017760048036038101906101729190611d8e565b610cca565b6040516101879493929190611de2565b60405180910390f35b34801561019b575f80fd5b506101a4610d21565b6040516101b2929190611e34565b60405180910390f35b6101d560048036038101906101d09190611eaf565b610e5b565b005b3480156101e2575f80fd5b506101eb6110fb565b005b3480156101f8575f80fd5b50610213600480360381019061020e9190611d8e565b6113bf565b604051610221929190611eff565b60405180910390f35b348015610235575f80fd5b50610250600480360381019061024b9190611ad2565b6113f4565b60405161025d9190611fbd565b60405180910390f35b5f8054906101000a900473ffffffffffffffffffffffffffffffffffffffff1681565b6009602052815f5260405f20818051602081018201805184825260208301602085012081835280955050505050505f9150915050805f015490806001015490806002015f9054906101000a900460030b908060020160049054906101000a900460030b908060030154908060040154905086565b60075f9054906101000a900460ff161561032f575f60075f6101000a81548160ff02191690831515021790555061039f565b5f84846040516020016103439291906122fe565b604051602081830303815290604052905061039c826003600480602002604051908101604052809291908260048015610391576020028201915b81548152602001906001019080831161037d575b5050505050836114c8565b50505b8160039060046103b09291906117c0565b505f5b84849050811015610c9e57600115158585838181106103d5576103d4612320565b5b90506020028101906103e79190612359565b5f0160208101906103f89190612381565b151503610821575f85858381811061041357610412612320565b5b90506020028101906104259190612359565b6020013590505f805f88888681811061044157610440612320565b5b90506020028101906104539190612359565b6060013513156104fe578787858181106104705761046f612320565b5b90506020028101906104829190612359565b6060013560085f8581526020019081526020015f20600101546104a591906123d9565b91508787858181106104ba576104b9612320565b5b90506020028101906104cc9190612359565b6060013560085f8581526020019081526020015f206001015f8282546104f291906123d9565b92505081905550610555565b7fffffffffffffffffffffffffffffffffffffffffffffffffffffffffffffffff88888681811061053257610531612320565b5b90506020028101906105449190612359565b606001356105529190612419565b91505b5f88888681811061056957610568612320565b5b905060200281019061057b9190612359565b6080013513156106265787878581811061059857610597612320565b5b90506020028101906105aa9190612359565b6080013560085f8581526020019081526020015f20600201546105cd91906123d9565b90508787858181106105e2576105e1612320565b5b90506020028101906105f49190612359565b6080013560085f8581526020019081526020015f206002015f82825461061a91906123d9565b9250508190555061067d565b7fffffffffffffffffffffffffffffffffffffffffffffffffffffffffffffffff88888681811061065a57610659612320565b5b905060200281019061066c9190612359565b6080013561067a9190612419565b90505b5f8054906101000a900473ffffffffffffffffffffffffffffffffffffffff1673ffffffffffffffffffffffffffffffffffffffff1663a9059cbb60085f8681526020019081526020015f205f015f9054906101000a900473ffffffffffffffffffffffffffffffffffffffff16846040518363ffffffff1660e01b815260040161070992919061248f565b6020604051808303815f875af1158015610725573d5f803e3d5ffd5b505050506040513d601f19601f8201168201806040525081019061074991906124ca565b5060015f9054906101000a900473ffffffffffffffffffffffffffffffffffffffff1673ffffffffffffffffffffffffffffffffffffffff1663a9059cbb60085f8681526020019081526020015f205f015f9054906101000a900473ffffffffffffffffffffffffffffffffffffffff16836040518363ffffffff1660e01b81526004016107d892919061248f565b6020604051808303815f875af11580156107f4573d5f803e3d5ffd5b505050506040513d601f19601f8201168201806040525081019061081891906124ca565b50505050610c8b565b5f85858381811061083557610834612320565b5b90506020028101906108479190612359565b6020013590505f86868481811061086157610860612320565b5b90506020028101906108739190612359565b806040019061088291906124f5565b8080601f0160208091040260200160405190810160405280939291908181526020018383808284375f81840152601f19601f8201169050808301925050505050505090505f60085f8481526020019081526020015f205f015f9054906101000a900473ffffffffffffffffffffffffffffffffffffffff16905087878581811061090f5761090e612320565b5b90506020028101906109219190612359565b6060013560095f8373ffffffffffffffffffffffffffffffffffffffff1673ffffffffffffffffffffffffffffffffffffffff1681526020019081526020015f208360405161097091906125c3565b90815260200160405180910390205f018190555087878581811061099757610996612320565b5b90506020028101906109a99190612359565b6080013560095f8373ffffffffffffffffffffffffffffffffffffffff1673ffffffffffffffffffffffffffffffffffffffff1681526020019081526020015f20836040516109f891906125c3565b908152602001604051809103902060010181905550878785818110610a2057610a1f612320565b5b9050602002810190610a329190612359565b60a0016020810190610a4491906125d9565b60095f8373ffffffffffffffffffffffffffffffffffffffff1673ffffffffffffffffffffffffffffffffffffffff1681526020019081526020015f2083604051610a8f91906125c3565b90815260200160405180910390206002015f6101000a81548163ffffffff021916908360030b63ffffffff160217905550878785818110610ad357610ad2612320565b5b9050602002810190610ae59190612359565b60c0016020810190610af791906125d9565b60095f8373ffffffffffffffffffffffffffffffffffffffff1673ffffffffffffffffffffffffffffffffffffffff1681526020019081526020015f2083604051610b4291906125c3565b908152602001604051809103902060020160046101000a81548163ffffffff021916908360030b63ffffffff160217905550878785818110610b8757610b86612320565b5b9050602002810190610b999190612359565b60e0013560095f8373ffffffffffffffffffffffffffffffffffffffff1673ffffffffffffffffffffffffffffffffffffffff1681526020019081526020015f2083604051610be891906125c3565b908152602001604051809103902060030181905550878785818110610c1057610c0f612320565b5b9050602002810190610c229190612359565b610100013560095f8373ffffffffffffffffffffffffffffffffffffffff1673ffffffffffffffffffffffffffffffffffffffff1681526020019081526020015f2083604051610c7291906125c3565b9081526020016040518091039020600401819055505050505b8080610c9690612604565b9150506103b3565b5050505050565b60015f9054906101000a900473ffffffffffffffffffffffffffffffffffffffff1681565b6008602052805f5260405f205f91509050805f015f9054906101000a900473ffffffffffffffffffffffffffffffffffffffff1690806001015490806002015490806003015f9054906101000a900460ff16905084565b5f805f8054906101000a900473ffffffffffffffffffffffffffffffffffffffff1673ffffffffffffffffffffffffffffffffffffffff166370a08231306040518263ffffffff1660e01b8152600401610d7b919061264b565b602060405180830381865afa158015610d96573d5f803e3d5ffd5b505050506040513d601f19601f82011682018060405250810190610dba9190612678565b60015f9054906101000a900473ffffffffffffffffffffffffffffffffffffffff1673ffffffffffffffffffffffffffffffffffffffff166370a08231306040518263ffffffff1660e01b8152600401610e14919061264b565b602060405180830381865afa158015610e2f573d5f803e3d5ffd5b505050506040513d601f19601f82011682018060405250810190610e539190612678565b915091509091565b5f670de0b6b3a764000090505f151560085f8481526020019081526020015f206003015f9054906101000a900460ff16151503610f10573360085f8481526020019081526020015f205f015f6101000a81548173ffffffffffffffffffffffffffffffffffffffff021916908373ffffffffffffffffffffffffffffffffffffffff160217905550600160085f8481526020019081526020015f206003015f6101000a81548160ff0219169083151502179055505b80841015610f53576040517f08c379a0000000000000000000000000000000000000000000000000000000008152600401610f4a906126fd565b60405180910390fd5b600115158315150361102b575f8054906101000a900473ffffffffffffffffffffffffffffffffffffffff1673ffffffffffffffffffffffffffffffffffffffff166323b872dd3330876040518463ffffffff1660e01b8152600401610fbb9392919061271b565b6020604051808303815f875af1158015610fd7573d5f803e3d5ffd5b505050506040513d601f19601f82011682018060405250810190610ffb91906124ca565b508360085f8481526020019081526020015f206001015f82825461101f9190612750565b925050819055506110f5565b60015f9054906101000a900473ffffffffffffffffffffffffffffffffffffffff1673ffffffffffffffffffffffffffffffffffffffff166323b872dd3330876040518463ffffffff1660e01b81526004016110899392919061271b565b6020604051808303815f875af11580156110a5573d5f803e3d5ffd5b505050506040513d601f19601f820116820180604052508101906110c991906124ca565b508360085f8481526020019081526020015f206002015f8282546110ed9190612750565b925050819055505b50505050565b3373ffffffffffffffffffffffffffffffffffffffff1660025f9054906101000a900473ffffffffffffffffffffffffffffffffffffffff1673ffffffffffffffffffffffffffffffffffffffff1614611153575f80fd5b5f8054906101000a900473ffffffffffffffffffffffffffffffffffffffff1673ffffffffffffffffffffffffffffffffffffffff166323b872dd33305f8054906101000a900473ffffffffffffffffffffffffffffffffffffffff1673ffffffffffffffffffffffffffffffffffffffff166370a08231306040518263ffffffff1660e01b81526004016111e8919061264b565b602060405180830381865afa158015611203573d5f803e3d5ffd5b505050506040513d601f19601f820116820180604052508101906112279190612678565b6040518463ffffffff1660e01b81526004016112459392919061271b565b6020604051808303815f875af1158015611261573d5f803e3d5ffd5b505050506040513d601f19601f8201168201806040525081019061128591906124ca565b5060015f9054906101000a900473ffffffffffffffffffffffffffffffffffffffff1673ffffffffffffffffffffffffffffffffffffffff166323b872dd333060015f9054906101000a900473ffffffffffffffffffffffffffffffffffffffff1673ffffffffffffffffffffffffffffffffffffffff166370a08231306040518263ffffffff1660e01b815260040161131f919061264b565b602060405180830381865afa15801561133a573d5f803e3d5ffd5b505050506040513d601f19601f8201168201806040525081019061135e9190612678565b6040518463ffffffff1660e01b815260040161137c9392919061271b565b6020604051808303815f875af1158015611398573d5f803e3d5ffd5b505050506040513d601f19601f820116820180604052508101906113bc91906124ca565b50565b5f8060085f8481526020019081526020015f206001015460085f8581526020019081526020015f206002015491509150915091565b6113fc611800565b60095f8473ffffffffffffffffffffffffffffffffffffffff1673ffffffffffffffffffffffffffffffffffffffff1681526020019081526020015f208260405161144791906125c3565b90815260200160405180910390206040518060c00160405290815f820154815260200160018201548152602001600282015f9054906101000a900460030b60030b60030b81526020016002820160049054906101000a900460030b60030b60030b815260200160038201548152602001600482015481525050905092915050565b5f806114d3836114ea565b90506114e085858361158f565b9150509392505050565b6114f2611836565b6114fa611858565b5f838051906020012090506001825f6003811061151a57611519612320565b5b60200201818152505060028260016003811061153957611538612320565b5b602002018181525050805f1c8260026003811061155957611558612320565b5b6020020181815250505f60608460808560076107d05a03fa9050805f810361157d57fe5b5080611587575f80fd5b505050919050565b5f80604051806101800160405280865f600281106115b0576115af612320565b5b60200201518152602001866001600281106115ce576115cd612320565b5b602002015181526020017f198e9393920d483a7260bfb731fb5d25f1aa493335a9e71297e485b7aef312c281526020017f1800deef121f1e76426a00665e5c4479674322d4f75edadd46debd5cd992f6ed81526020017f275dc4a288d1afb3cbb1ac09187524c7db36395df7be3b99e673b13a075a65ec81526020017f1d9befcd05a5323e6da4d435f3b617cdb3af83285c2df711ef39c01571827f9d8152602001845f6002811061168357611682612320565b5b60200201518152602001846001600281106116a1576116a0612320565b5b60200201518152602001855f600481106116be576116bd612320565b5b60200201518152602001856001600481106116dc576116db612320565b5b60200201518152602001856002600481106116fa576116f9612320565b5b602002015181526020018560036004811061171857611717612320565b5b6020020151815250905061172a61187a565b5f61173483611740565b93505050509392505050565b5f61174961187a565b5f602082610180865f60086107d05a03f190508061179c576040517f08c379a0000000000000000000000000000000000000000000000000000000008152600401611793906127db565b60405180910390fd5b6001825f600181106117b1576117b0612320565b5b60200201511492505050919050565b82600481019282156117ef579160200282015b828111156117ee5782358255916020019190600101906117d3565b5b5090506117fc919061189c565b5090565b6040518060c001604052805f81526020015f81526020015f60030b81526020015f60030b81526020015f81526020015f81525090565b6040518060400160405280600290602082028036833780820191505090505090565b6040518060600160405280600390602082028036833780820191505090505090565b6040518060200160405280600190602082028036833780820191505090505090565b5b808211156118b3575f815f90555060010161189d565b5090565b5f73ffffffffffffffffffffffffffffffffffffffff82169050919050565b5f819050919050565b5f6118f96118f46118ef846118b7565b6118d6565b6118b7565b9050919050565b5f61190a826118df565b9050919050565b5f61191b82611900565b9050919050565b61192b81611911565b82525050565b5f6020820190506119445f830184611922565b92915050565b5f604051905090565b5f80fd5b5f80fd5b5f611965826118b7565b9050919050565b6119758161195b565b811461197f575f80fd5b50565b5f813590506119908161196c565b92915050565b5f80fd5b5f80fd5b5f601f19601f8301169050919050565b7f4e487b71000000000000000000000000000000000000000000000000000000005f52604160045260245ffd5b6119e48261199e565b810181811067ffffffffffffffff82111715611a0357611a026119ae565b5b80604052505050565b5f611a1561194a565b9050611a2182826119db565b919050565b5f67ffffffffffffffff821115611a4057611a3f6119ae565b5b611a498261199e565b9050602081019050919050565b828183375f83830152505050565b5f611a76611a7184611a26565b611a0c565b905082815260208101848484011115611a9257611a9161199a565b5b611a9d848285611a56565b509392505050565b5f82601f830112611ab957611ab8611996565b5b8135611ac9848260208601611a64565b91505092915050565b5f8060408385031215611ae857611ae7611953565b5b5f611af585828601611982565b925050602083013567ffffffffffffffff811115611b1657611b15611957565b5b611b2285828601611aa5565b9150509250929050565b5f819050919050565b611b3e81611b2c565b82525050565b5f8160030b9050919050565b611b5981611b44565b82525050565b5f60c082019050611b725f830189611b35565b611b7f6020830188611b35565b611b8c6040830187611b50565b611b996060830186611b50565b611ba66080830185611b35565b611bb360a0830184611b35565b979650505050505050565b5f80fd5b5f80fd5b5f8083601f840112611bdb57611bda611996565b5b8235905067ffffffffffffffff811115611bf857611bf7611bbe565b5b602083019150836020820283011115611c1457611c13611bc2565b5b9250929050565b5f81905082602060040282011115611c3657611c35611bc2565b5b92915050565b5f67ffffffffffffffff821115611c5657611c556119ae565b5b602082029050919050565b5f819050919050565b611c7381611c61565b8114611c7d575f80fd5b50565b5f81359050611c8e81611c6a565b92915050565b5f611ca6611ca184611c3c565b611a0c565b90508060208402830185811115611cc057611cbf611bc2565b5b835b81811015611ce95780611cd58882611c80565b845260208401935050602081019050611cc2565b5050509392505050565b5f82601f830112611d0757611d06611996565b5b6002611d14848285611c94565b91505092915050565b5f805f8060e08587031215611d3557611d34611953565b5b5f85013567ffffffffffffffff811115611d5257611d51611957565b5b611d5e87828801611bc6565b94509450506020611d7187828801611c1b565b92505060a0611d8287828801611cf3565b91505092959194509250565b5f60208284031215611da357611da2611953565b5b5f611db084828501611c80565b91505092915050565b611dc28161195b565b82525050565b5f8115159050919050565b611ddc81611dc8565b82525050565b5f608082019050611df55f830187611db9565b611e026020830186611b35565b611e0f6040830185611b35565b611e1c6060830184611dd3565b95945050505050565b611e2e81611c61565b82525050565b5f604082019050611e475f830185611e25565b611e546020830184611e25565b9392505050565b611e6481611b2c565b8114611e6e575f80fd5b50565b5f81359050611e7f81611e5b565b92915050565b611e8e81611dc8565b8114611e98575f80fd5b50565b5f81359050611ea981611e85565b92915050565b5f805f60608486031215611ec657611ec5611953565b5b5f611ed386828701611e71565b9350506020611ee486828701611e9b565b9250506040611ef586828701611c80565b9150509250925092565b5f604082019050611f125f830185611b35565b611f1f6020830184611b35565b9392505050565b611f2f81611b2c565b82525050565b611f3e81611b44565b82525050565b60c082015f820151611f585f850182611f26565b506020820151611f6b6020850182611f26565b506040820151611f7e6040850182611f35565b506060820151611f916060850182611f35565b506080820151611fa46080850182611f26565b5060a0820151611fb760a0850182611f26565b50505050565b5f60c082019050611fd05f830184611f44565b92915050565b5f82825260208201905092915050565b5f819050919050565b5f611ffd6020840184611e9b565b905092915050565b61200e81611dc8565b82525050565b5f6120226020840184611c80565b905092915050565b61203381611c61565b82525050565b5f80fd5b5f80fd5b5f80fd5b5f808335600160200384360303811261206157612060612041565b5b83810192508235915060208301925067ffffffffffffffff82111561208957612088612039565b5b60018202360383131561209f5761209e61203d565b5b509250929050565b5f82825260208201905092915050565b5f6120c283856120a7565b93506120cf838584611a56565b6120d88361199e565b840190509392505050565b5f6120f16020840184611e71565b905092915050565b61210281611b44565b811461210c575f80fd5b50565b5f8135905061211d816120f9565b92915050565b5f612131602084018461210f565b905092915050565b5f610120830161214b5f840184611fef565b6121575f860182612005565b506121656020840184612014565b612172602086018261202a565b506121806040840184612045565b85830360408701526121938382846120b7565b925050506121a460608401846120e3565b6121b16060860182611f26565b506121bf60808401846120e3565b6121cc6080860182611f26565b506121da60a0840184612123565b6121e760a0860182611f35565b506121f560c0840184612123565b61220260c0860182611f35565b5061221060e08401846120e3565b61221d60e0860182611f26565b5061222c6101008401846120e3565b61223a610100860182611f26565b508091505092915050565b5f6122508383612139565b905092915050565b5f823560016101200383360303811261227457612273612041565b5b82810191505092915050565b5f602082019050919050565b5f6122978385611fd6565b9350836020840285016122a984611fe6565b805f5b878110156122ec5784840389526122c38284612258565b6122cd8582612245565b94506122d883612280565b925060208a019950506001810190506122ac565b50829750879450505050509392505050565b5f6020820190508181035f83015261231781848661228c565b90509392505050565b7f4e487b71000000000000000000000000000000000000000000000000000000005f52603260045260245ffd5b5f80fd5b5f80fd5b5f80fd5b5f82356001610120038336030381126123755761237461234d565b5b80830191505092915050565b5f6020828403121561239657612395611953565b5b5f6123a384828501611e9b565b91505092915050565b7f4e487b71000000000000000000000000000000000000000000000000000000005f52601160045260245ffd5b5f6123e382611b2c565b91506123ee83611b2c565b925082820390508181125f8412168282135f851215161715612413576124126123ac565b5b92915050565b5f61242382611b2c565b915061242e83611b2c565b925082820261243c81611b2c565b91507f800000000000000000000000000000000000000000000000000000000000000084145f84121615612473576124726123ac565b5b8282058414831517612488576124876123ac565b5b5092915050565b5f6040820190506124a25f830185611db9565b6124af6020830184611e25565b9392505050565b5f815190506124c481611e85565b92915050565b5f602082840312156124df576124de611953565b5b5f6124ec848285016124b6565b91505092915050565b5f80833560016020038436030381126125115761251061234d565b5b80840192508235915067ffffffffffffffff82111561253357612532612351565b5b60208301925060018202360383131561254f5761254e612355565b5b509250929050565b5f81519050919050565b5f81905092915050565b5f5b8381101561258857808201518184015260208101905061256d565b5f8484015250505050565b5f61259d82612557565b6125a78185612561565b93506125b781856020860161256b565b80840191505092915050565b5f6125ce8284612593565b915081905092915050565b5f602082840312156125ee576125ed611953565b5b5f6125fb8482850161210f565b91505092915050565b5f61260e82611c61565b91507fffffffffffffffffffffffffffffffffffffffffffffffffffffffffffffffff82036126405761263f6123ac565b5b600182019050919050565b5f60208201905061265e5f830184611db9565b92915050565b5f8151905061267281611c6a565b92915050565b5f6020828403121561268d5761268c611953565b5b5f61269a84828501612664565b91505092915050565b5f82825260208201905092915050565b7f416d6f756e74206c657373207468616e206d696e696d756d20616d6f756e74005f82015250565b5f6126e7601f836126a3565b91506126f2826126b3565b602082019050919050565b5f6020820190508181035f830152612714816126db565b9050919050565b5f60608201905061272e5f830186611db9565b61273b6020830185611db9565b6127486040830184611e25565b949350505050565b5f61275a82611b2c565b915061276583611b2c565b92508282019050828112155f8312168382125f84121516171561278b5761278a6123ac565b5b92915050565b7f656c6c69707469632063757276652070616972696e67206661696c65640000005f82015250565b5f6127c5601d836126a3565b91506127d082612791565b602082019050919050565b5f6020820190508181035f8301526127f2816127b9565b905091905056fea264697066735822122092b66bdde3201f99b1843f1be13f2189ca6f268b54c7d6ba5653144226b6178764736f6c63430008150033",
  "immutableReferences": {},
  "source": "//SPDX-License-Identifier: Unlicense\npragma solidity ^0.8.20;\n\nimport \"@openzeppelin/contracts/token/ERC20/IERC20.sol\";\nimport \"@openzeppelin/contracts/token/ERC20/ERC20.sol\";\nimport \"./quickbls.sol\";\n\ncontract TokenBank {\n    IERC20 public tokenA;\n    IERC20 public tokenB;\n    address private owner;\n\n    uint256[4] pubkey;\n    bool first_run = true;\n\n    constructor(\n        address _tokenA,\n        address _tokenB\n    ) {\n        tokenA = IERC20(_tokenA);\n        tokenB = IERC20(_tokenB);\n        owner = msg.sender;\n    }\n    // define deposit mapping \n    struct deposit_struct {\n        address sepoliaAddr;\n        int256 amount_tokenA;\n        int256 amount_tokenB;\n        bool initialized;\n    }\n    mapping(uint256 => deposit_struct) public deposit_map;\n    // define position mapping \n    struct position_stuct {\n        int256 amount_tokenA;\n        int256 amount_tokenB;\n        int32 lower_bound;\n        int32 upper_bound;\n        int256 fees_earned_A;\n        int256 fees_earned_B;\n    }\n    mapping(address => mapping(string => position_stuct)) public position_map;\n    // define sync_structure and mapping\n    struct sync_struct {\n        bool tx_type_id;\n        uint256 sidechainAddr;\n        string position_id; \n        int256 amount_tokenA;\n        int256 amount_tokenB;\n        int32 lower_bound;\n        int32 upper_bound;\n        int256 fees_earned_A;\n        int256 fees_earned_B;\n    }\n    function deposit (int256 _amount, bool _type, uint256 sidechainAddr) public payable {\n        // set minimum amounts\n        uint _minAmount = 1*(10**18);\n        //check if address pairing is claimed, if not claim it \n        if(deposit_map[sidechainAddr].initialized == false){\n            deposit_map[sidechainAddr].sepoliaAddr = msg.sender;\n            deposit_map[sidechainAddr].initialized = true;\n        }\n        require(uint256(_amount) >= _minAmount, \"Amount less than minimum amount\");\n        // transfer tokens from sender to contract, conditional check for the type of token, adjust mapping\n        if (_type == true) {\n            tokenA.transferFrom(msg.sender, address(this), uint256(_amount));\n            deposit_map[sidechainAddr].amount_tokenA += _amount;\n        } else {\n            tokenB.transferFrom(msg.sender, address(this), uint256(_amount));\n            deposit_map[sidechainAddr].amount_tokenB += _amount;\n        }\n    }\n    function handle_sync (sync_struct[] calldata syncTx, uint[4] calldata nextPubkey, uint[2] memory signature) public {\n        // perform some form of authentication\n        // iterate through list\n        if (first_run){\n            first_run = false;\n        } else {\n            bytes memory encodedTx = abi.encode(syncTx);\n            QuickBLS.verifySignature(signature, pubkey, encodedTx);\n        }\n        pubkey = nextPubkey;\n        for (uint i=0; i < syncTx.length; i++) {\n            // for each element within the list, check the tx_type_id\n            if (syncTx[i].tx_type_id == true) {\n                uint256 _addr = syncTx[i].sidechainAddr;\n                int amount_out_A = 0;\n                int amount_out_B = 0;\n                // calculate the output amounts\n                if (syncTx[i].amount_tokenA > 0) {\n                    amount_out_A = deposit_map[_addr].amount_tokenA - syncTx[i].amount_tokenA;\n                    deposit_map[_addr].amount_tokenA -= syncTx[i].amount_tokenA;\n                } else {\n                    amount_out_A = syncTx[i].amount_tokenA * -1;\n                } if (syncTx[i].amount_tokenB > 0) {\n                    amount_out_B = deposit_map[_addr].amount_tokenB - syncTx[i].amount_tokenB;\n                    deposit_map[_addr].amount_tokenB -= syncTx[i].amount_tokenB;\n                } else {\n                    amount_out_B = syncTx[i].amount_tokenB * -1;\n                }\n                // pay tokens\n                tokenA.transfer(deposit_map[_addr].sepoliaAddr, uint(amount_out_A));\n                tokenB.transfer(deposit_map[_addr].sepoliaAddr, uint(amount_out_B));\n            } else {\n                // update position mapping with respective values \n                uint256 _addr = syncTx[i].sidechainAddr;\n                string memory _uid = syncTx[i].position_id;\n                address mcAddr = deposit_map[_addr].sepoliaAddr;\n                position_map[mcAddr][_uid].amount_tokenA = syncTx[i].amount_tokenA;\n                position_map[mcAddr][_uid].amount_tokenB = syncTx[i].amount_tokenB;\n                position_map[mcAddr][_uid].lower_bound = syncTx[i].lower_bound;\n                position_map[mcAddr][_uid].upper_bound = syncTx[i].upper_bound;\n                position_map[mcAddr][_uid].fees_earned_A = syncTx[i].fees_earned_A;\n                position_map[mcAddr][_uid].fees_earned_B = syncTx[i].fees_earned_B;\n            }\n        }\n    }\n    function getContractBalance() public view returns(uint tokenAval, uint tokenBval){\n        return (IERC20(tokenA).balanceOf(address(this)), IERC20(tokenB).balanceOf(address(this)));\n    }\n    // optimization option: recieves a list of addresses which have deposited and returns all of their mappings, not just one at a time, reduce TX count overall. \n    function getDepositBalance(uint256 _addr) public view returns(int256 tokenAval, int256 tokenBval) {\n        return (deposit_map[_addr].amount_tokenA, deposit_map[_addr].amount_tokenB);\n    }\n    // not tested yet\n    function getPosition(address _addr, string memory _uid) public view returns(position_stuct memory) {\n        return position_map[_addr][_uid];\n    }\n    function withdrawAll() public {\n        require(owner == msg.sender);\n        tokenA.transferFrom(msg.sender, address(this), uint256(IERC20(tokenA).balanceOf(address(this))));\n        tokenB.transferFrom(msg.sender, address(this), uint256(IERC20(tokenB).balanceOf(address(this))));\n    }\n}",
  "sourcePath": "/Users/menajd/work/chainBoostAMM/abstract_amm/TokenBank/tbsc/contracts/TokenBank.sol",
  "compiler": {
    "name": "solc",
    "version": "0.8.21+commit.d9974bed.Emscripten.clang"
  },
  "schemaVersion": "3.4.16",
  "updatedAt": "2024-05-08T15:32:57.358Z",
  "networkType": "ethereum",
  "devdoc": {
    "kind": "dev",
    "methods": {},
    "version": 1
  },
  "userdoc": {
    "kind": "user",
    "methods": {},
    "version": 1
  }
}